:020000040000FA
:10000000E00B0020010D0000370D0000390D00004D
:1000100000000000000000000000000000000000E0
:100020000000000000000000020000003B0D000086
:1000300000000000000000003D0D00003F0D00002A
:10004000410D0000430D0000450D0000470D00006C
:10005000490D00004B0D00002B0200004F0D000069
:10006000510D0000530D0000550D0000570D00000C
:10007000590D00005B0D00005D0D00005F0D0000DC
:10008000610D0000630D0000650D0000670D0000AC
:10009000690D00006B0D00006D0D00006F0D00007C
:1000A000710D0000730D0000750D0000770D00004C
:1000B000790D00007B0D00007D0D00007F0D00001C
:1000C000F82318688168C907FCD10121090326318A
:1000D0000160012141624A02C26141614169C9076F
:1000E000FCD14121490101605A6802620121C90223
:1000F000016070470000000000A00440060205EB0C
:100100000348854600F054FE0048004757010000B0
:10011000E00B00201FB55E4C012200231146204653
:1001200000F070FC01231A460021204600F06AFC12
:10013000E120000200900020694608714871887132
:10014000087288728873534C204600F00DFA2046DE
:1001500000F0C1FA1FBD88B000F0B4FDFFF7DAFF70
:100160004B48002307220421403000F04BFC484C50
:10017000002307220F21204600F044FC0023072221
:100180000E21204600F03EFC002307220D212046D0
:1001900000F038FC002307220C21204600F032FC3E
:1001A0003B4C0722203400231146204600F02AFC55
:1001B000002307220621204600F024FC0621684681
:1001C00001760321417600248476C47601250577E3
:1001D00044778477304E06A9304600F06BF83046FD
:1001E00000F0FFF830680321490408433060684696
:1001F000047145717D21C900C18027489430029067
:100200006846047325480490684605759221417537
:100210008475C57501A9002000F075FB002000F071
:10022000C7FB304600F0E3F8FEE7F8B5002000F029
:10023000DBFB00281DD0002000F0D1FB164F384614
:1002400000F0DAF80024154D7D26F6006000285AEB
:100250004104490F04D10105090D11A000F0BAFDB8
:10026000641CB442F2D3002000F0A2FB384600F038
:10027000BEF8F8BD70B50446064DE1B2284600F060
:1002800030FA284600F039FA0028FAD1204670BD2D
:1002900000000A4000200440009004400C000020B0
:1002A0002534642C000000000168012212039143F0
:1002B00001607047F0B503460C46A5481D180120A3
:1002C000C0022E1AC704002D02D0002E0BD105E06B
:1002D000B868012189060843B86004E0F868012184
:1002E00009040843F8601846FFF7DEFF3868072165
:1002F0000904884338603868217809040843386065
:100300001868000A000218601868617808431860CD
:100310001868EF210902884318601868A1782279CB
:1003200009020843E1788903520311430843186026
:10033000002098608748D86060798207C107D20F93
:10034000C90F920011434207D20F12011143020755
:10035000D20F92011143C206D20F1202114382063C
:10036000D20F920211434206D20F1203C009114369
:1003700080030143986801439960A0798207C1070F
:10038000D20F890FD20011434207D20F52011143FD
:100390000207D20FD2011143C206D20F52021143FB
:1003A0008206D20FD20211434206D20F5203C00975
:1003B0001143C00301439868014399606649002DC9
:1003C00007D0002E04D16079A279104300D00F60CD
:1003D000F0BD6079A2791043FAD00120C004086012
:1003E000F0BD0168012212031143016070474168AA
:1003F000012211434160704741684908490041604A
:10040000704701460020102916D009DC012906D0CA
:1004100002290DD004290DD0082900D103207047EE
:1004200020290BD040290BD08029F8D10720704714
:100430000120704702207047042070470520704754
:100440000620704710B504460846FFF7DAFF0001A2
:10045000011948690005000D01220A6110BD10B59F
:1004600004460846FFF7CDFF000100190069C007E8
:10047000C00F10BD0268120A1202026002680A432D
:100480000260704710B504460846FFF7BAFFA1683E
:100490004200012090400143A16010BD10B5044608
:1004A0000846FFF7AEFFA16842000120904081435B
:1004B000A16010BD10B504460846FFF7A2FF410039
:1004C00001208840E06010BD10B504460846FFF7E3
:1004D00098FFE168420001209040014201D00120D4
:1004E00010BD002010BD10B504460846FFF789FF77
:1004F000A1684000401C012282401143A16010BD50
:1005000010B504460846FFF77CFFA1684000401C78
:10051000012282409143A16010BD10B504460846F7
:10052000FFF76FFF4000401C01218140E16010BDDA
:1005300010B504460846FFF764FFE1684000401C20
:1005400001228240114201D0012010BD002010BDC7
:100550000070FBBFFFFF030000E100E041680122E3
:100560005202914341607047FEB504460D46DC4897
:10057000012120188907CA14861AB71ABA1A0092DC
:100580000190002807D0002E0AD0002F0DD000982F
:10059000002815D10FE088684022104388600FE0E2
:1005A00088688022104388600AE08868FF22013250
:1005B0001043886004E0886801225202104388607A
:1005C0002046FFF7CBFF60680121490308436060C4
:1005D000A068C4490840A060C3482968006800F0CA
:1005E000D1FB401E0421C841A1680843A060606897
:1005F0003F2189048843606060682979AA79890469
:1006000008436979C9049205114308436060E068B2
:1006100080B2E060E879697A000409060843E1687D
:100620000843E060E069000B0003E061E069A9892C
:100630000843E0616068AD49084060606068297AFD
:10064000AA7B09010843A97A890092031143084350
:1006500060600198002810D0002E1CD0002F28D0F8
:100660000098002808D1287AA97A0843A97B084372
:100670002DD01B2000F024F9FEBD287AA97A08436A
:10068000A97B084303D0022000F01AF9FEBD022026
:1006900000F01DF9FEBD287AA97A0843A97B08431A
:1006A00003D0032000F00CF9FEBD032000F00FF989
:1006B000FEBD287AA97A0843A97B084303D01620F7
:1006C00000F0FEF8FEBD162000F001F9FEBD1B2073
:1006D00000F0FDF8FEBD4168012252021143416065
:1006E0007047016070470068C205D20D0A6040057E
:1006F00001D50220704700207047C1680904090E27
:1007000001D0012070478168490404D54068C007C2
:1007100001D0002070470120704740680007C017D3
:10072000401C704740688007C00F704710B50446F2
:10073000A0686C4A1040A0606B48006800F022FB83
:10074000401E0421C841A1680843A06010BD10B537
:10075000816880688904890B000F09186248491C68
:10076000006800F00FFB10BD10B543690524A343DA
:100770004361436992000A431343436110BD4069DA
:100780000006C00F704730B544697A25AC43446118
:10079000446949000C43D1001A0111430C434461E0
:1007A00030BD4069C005C00F704710B5036905240E
:1007B000A3430361036992000A431343036110BD1D
:1007C0000169102211430161704700698007C00F61
:1007D000704700690007C00F7047FF2916D0CA1F75
:1007E000FF3AF93A12D0FE2912D0CA1FFF3AF83A5E
:1007F0000ED0F8290ED00A46FF3AF93A0AD08029DD
:100800000AD00A46FF3A813A06D0FEE7002104E00A
:10081000012102E0022100E0032182680723DB05B9
:100820009A438260826801230906DB05C9180A43DE
:10083000826070478168090201D500207047806896
:10084000400101D502207047012070474168102205
:1008500011434160704741681022914341607047E5
:1008600080684002C00F7047416804221143416014
:10087000704741680422914341607047806880035B
:10088000C00F7047416801229203114341607047D5
:100890004168012292039143416070478068800261
:1008A000C00F704741684022114341607047416862
:1008B000402291434160704780680001C00F70473B
:1008C000C106C90E01208840094908607047C10669
:1008D000C90E012088400649803108607047000039
:1008E00000E0FBBF00C0FF0F00000020EBBFFFFFD8
:1008F00000E100E0810141480818016C0322120464
:10090000914301647047F0B505460B463B4E012408
:1009100034602846FFF7EEFF187859888004491E96
:100920000843A901891908645868C865D8688864AB
:10093000187A1A7C00020243587887028000074325
:100940003A434A64587C30270246384006D0102883
:100950000AD020280ED1002088650BE01007000F78
:1009600004221043886505E01007000D0122920261
:1009700010438865F06BAC40A043F063F06B997C4A
:10098000A9400843F063F460706820437060D87C2D
:10099000002803D0B068A043B06002E0B0682043F4
:1009A000B060D87C002802D0154940200860F0BD16
:1009B000810112480818016C0122120411430164DC
:1009C00070470E498A68012383409A438A607047C2
:1009D0000A498A68012383401A438A6070470121CB
:1009E00081400648C16070470449C96801228240BD
:1009F000114201D0012070470020704700080040DC
:100A000000E100E070B50F25082909D206688C00C6
:100A1000A540AE4306600568A240154305600AE0A4
:100A200046680C46083CA400A540AE4346604568B5
:100A3000A240154345600324240201228A40001984
:100A4000002B03D001681143016070BD0168914320
:100A5000016070BDF8B50125AD0728689F49C3073F
:100A60009F4AA048A04C06D00968890701D522609A
:100A700034E0206032E02B687D26DB065F0F360213
:100A80003B0000F0B7F90504061C1E202500266077
:100A90001EE0924B40331B689B0706D50968890707
:100AA00001D5226002E0206000E02060062120687D
:100AB00000F068F978214843C008206008E026600B
:100AC00006E0206004E020600868800700D522600E
:100AD0002868800702D52068C00820608349206804
:100AE00000F050F96060F8BD7C4901200860810782
:100AF0000A6802430A60704700B5FFF7F5FF7748C0
:100B0000016AFF2212321143016200207D21C900D7
:100B100000BF401C8842FBD3012188074160016867
:100B20001C229143016001680822114301600168A1
:100B3000022291430160016849084900016000BD3B
:100B400000B5FFF7D1FF6548012140300161000683
:100B5000416001681C2291430160016801600168E5
:100B6000022291430160016849084900016000BD0B
:100B70005A48012202605948403001680223194353
:100B8000016041685A4B194041604168594B194313
:100B900041600168042399430160C1680029FCD0C9
:100BA000016811430160704710B50446FFF79CFFD0
:100BB000FFF7DEFF01208107486008681C22904390
:100BC000086008680422104308600222002C03D049
:100BD00008681043086002E00868904308600868ED
:100BE00040084000086010BD70B50446FFF77CFF68
:100BF000414D0023072201212846FFF703FF002370
:100C0000072219462846FFF7FDFE3448016A3B4A91
:100C10001143016200217D20C00000BF491C8142B8
:100C2000FBD301218807416001681C2291430160C8
:100C300001680C22114301600221002C03D00268DC
:100C40000A43026002E002688A43026001684908C0
:100C50004900016070BD2149032008604804016813
:100C6000012211430160704700B5FFF7F4FF012135
:100C70008807416001681C229143016001681022CD
:100C800011430160016802221143016001684908B3
:100C90004900016000BD00B5FFF726FF012188076C
:100CA000416001681C2291430160016810221143D8
:100CB000016001680222114301600168490849008E
:100CC000016000BD10B50120800781684211114309
:100CD0008160FFF7C0FFFFF7BDFE10BD00A00A4016
:100CE000006CDC0200366E010000002040420F0064
:100CF00000FEE0FC1E00060020000A402200070063
:100D0000402000068C30016885200002403000023F
:100D1000123088420DD140200002001D0002A03098
:100D200000020168880A03210840022801D0C1207E
:100D3000804713480047FEE7FEE7FEE7FEE7FEE7D1
:100D4000FEE7FEE7FEE7FEE7FEE7FEE7FEE7FEE77B
:100D5000FEE7FEE7FEE7FEE7FEE7FEE7FEE7FEE76B
:100D6000FEE7FEE7FEE7FEE7FEE7FEE7FEE7FEE75B
:100D7000FEE7FEE7FEE7FEE7FEE7FEE7FEE7FEE74B
:100D80000101000030B50B4601460020202201245D
:100D900009E00D46D5409D4205D31D469540491BAF
:100DA0002546954040191546521E002DF1DC30BDF8
:100DB000064C0125064E05E0E36807CC2B430C3CAE
:100DC00098471034B442F7D3FFF79EF97C11000026
:100DD0009C1100000FB410B503A9044B044A0298FB
:100DE00000F024F810BC08BC04B0184775020000DD
:100DF0000800002030B47446641E2578641CAB42A1
:100E000000D21D46635D5B00E31830BC184702E06A
:100E100008C8121F08C1002AFAD170477047002085
:100E200001E001C1121F002AFBD17047FFB58FB04E
:100E30000546002606E025280AD0129A1199904707
:100E40006D1C761C28780028F5D1304613B0F0BD13
:100E5000002402940121B54A009400E004436D1C73
:100E60002B780846203B98401042F7D128782A2852
:100E70000ED00222287801463039092916D8029965
:100E80000A2359433039401814436D1C0290F1E78E
:100E9000109802C802911090002904DA0120400342
:100EA000044348420290022004436D1C28782E28F7
:100EB00017D10420044368786D1C2A280CD110989F
:100EC0006D1C02C8009110900BE000990A2251435A
:100ED000303940186D1C00902878014630390929B6
:100EE000F3D928786C2810D006DC4C281AD0682852
:100EF0000ED06A2817D104E0742813D07A2812D1B2
:100F000010E00120400504430CE00121090501E047
:100F1000032109050C436978814203D101200005B2
:100F200024186D1C6D1C2878692874D006DC0028F4
:100F30008BD0632827D0642806D16CE06E2808D0B7
:100F400073282CD0752878D0129A11999047761C66
:100F50005FE06002400F022809D003280DD004286A
:100F6000109801680DD00E60001D109051E010988F
:100F7000F21701680E604A60F6E7109801680E806B
:100F8000F2E70E70F0E710986A4601781173001DC1
:100F900010900020507303A80190012005E01098E4
:100FA00002C8019110900020C04361070CD50027B2
:100FB00000E07F1C00998F420FDA8742F9DB01992C
:100FC000C95D0029F5D108E0002700E07F1C8742B9
:100FD000FCDB0199C95D0029F8D102982146C01BAC
:100FE0000290129B119A00F0B3F88019C61907E01D
:100FF000019801990078491C0191129A1199904722
:101000007F1EF5D22146129B119A029800F090F8AB
:1010100086196D1C16E70A200190109901C91091DC
:101020006102490F032900D100B2042900D140B266
:10103000002803DA40422D2103E00DE0210504D50C
:101040002B216A461173012103E0E10711D0202111
:10105000F7E70CAF0C9114E00A200190109901C938
:1010600010916102490F032900D180B2042900D1F7
:10107000C0B20021EDE70199FFF784FE30317F1EF9
:1010800039700028F7D104A8C01B203001906007F8
:1010900004D5012000048443009801E00120009061
:1010A0000199884201DD401A00E0002041180090BB
:1010B0000C9809180298401A0290E00306D42146C1
:1010C000129B119A029800F043F8861900200D90A7
:1010D00008E003A9085C129A119990470D98401CEA
:1010E000761C0D900C998842F3DBE0030CD5214669
:1010F000129B119A029800F02BF8861904E0129ABC
:10110000302011999047761C0099481E00900029C4
:10111000F5DC05E03878129A7F1C11999047761C0F
:101120000199481E01900029F4DC6BE709280100B1
:10113000F8B5044600251E461746880404D405E089
:1011400039462020B0476D1C641EF9D52846F8BDED
:10115000FFB50446002581B01E46C80301D53027DF
:1011600000E02027880404D505E038460399B047FD
:101170006D1C641EF9D5284605B0F0BD9C11000019
:10118000000000200C0000000E0E0000A81100005E
:101190000C000020D40B00001E0E000000366E0173
:0811A00018000000000000002F
:0400000500000101F5
:00000001FF
